:10010000DDE5DD210000DD39210000E5210100E50C
:10011000210000E5210000E5F5C5D5CA9F01D5EB1A
:10012000DD5EFADD56FBEBD1DD5E04DD5605AFED9D
:1001300052C24101D5EBDD5EFEDD56FFEBD1C3A916
:1001400001D5EBDD5EFEDD56FFEBD1DD5EFCDD565D
:10015000FD19D5EBDD73F8DD72F9EBD1D5EBDD5E82
:10016000FCDD56FDEBD1D5EBDD73FEDD72FFEBD18F
:10017000D5EBDD5EF8DD56F9EBD1D5EBDD73FCDDBB
:1001800072FDEBD1D5EBDD5EFADD56FBEBD123D56D
:10019000EBDD73FADD72FBEBD13E01B7C31B01D57A
:1001A000EBDD5EFEDD56FFEBD1D1C1F1DDF9DDE126
:1001B000C9F5C5D5210A00E5CD00013333D1C1F120
:0101C000C975
:00000001FF
